:100ECA0020203A20203A20200020203A20203A20D0
:0A0EDA002020203A20203A202000BA
:100D370001290001280001230001300001220001E0
:100D47002F000131000738373B1700000000012D45
:100D570000012B00012600012E00012C00012705B0
:100D67000234000002240000012A00012100C10210
:040D7700C101C100F5
:100EAE00E4FEEEC3940874809480500FC296EF1344
:0B0EBE009295EFC313FFD2960E80E761
:010EC9002206
:100DFE00C29700C29600D29700120EAEED75F00AA1
:100E0E0084C454F0FFED75F00A84E5F04FFF120E26
:040E1E00AEC29722A7
:100CE100E4FDF508F509FBFAC29700C29600D29718
:100CF10000120EAEE4FFEFC394087480948050118B
:100D0100C296EDC313FD309503430580D2960F8043
:100D1100E5C29700C29600D29600C29500D2950016
:100D2100EDC4540F750800F509ED540FFBE5097585
:050D3100F00AA42BFFF5
:010D3600229A
:100D7C007C80E4FD7F8E120DFEE4FBEBC3940774C4
:100D8C008094805010AF0474382BF8E6FD120DFEE1
:0C0D9C000C0C0B80E67D807F8E020DFEAB
:100DA8007C81E4FD7F8E120DFEE4F9E9C39407749B
:100DB8008094805010AF04120CE1743829F8A6070B
:0C0DC8000C0C0980E67D807F8E020DFE81
:040E22007F057E00CA
:100E2600E4FDFCC3ED9FEC9E5015E4FBFA0BBB0002
:0F0E3600010ABA03F8BB48F50DBD00010C80E4BA
:010E4500228A
:060E46008F807F057E0095
:100E4C00D3EF9400EE940040147D6E7C00ED1D7089
:0D0E5C00011CED4C70F7EF1F70E61E80E3E7
:010E69002266
:0A0F0300C2A7120E46D2A5C2A52215
:050EF400120F037F2036
:0A0EF900D2A7120E46D2A5C2A52210
:100C7000C2A57F38120F037F0C120F037F06120FDD
:100C8000037F01120F037F84120F03E4F532F53363
:100C900074CA2533F582740E3532F583E493FF125E
:100CA0000EF90533E53370020532C39408E532943A
:100CB0000040DD7FC0120F03E4F536F53774D3250D
:100CC00037F582740E3536F583E493FF120EF9057D
:100CD00037E53770020536C39410E536940040DDE1
:010CE00022F1
:100E6A00ED75F00A84ABF0ED75F00A84FAEF24848C
:100E7A00FF120F03EA2430FF120EF9EB2430FF02AF
:020E8A000EF95F
:100E8C00ED75F00A84ABF0ED75F00A84FAEF24C02E
:100E9C00FF120F03EA2430FF120EF9EB2430FF028D
:020EAC000EF93D
:100B2500209070120E22209065AF23EF702BAD3010
:100B3500FCED70057530018055ED64014C7005754F
:100B45003002804AED64024C7005753003803FED3C
:100B550064034C7039F5308035D3EF9400EE648032
:100B65009480402AAF297E00EF7005752901801E0B
:100B7500EF64014E70057529028013EF64024E7013
:100B8500057529038008EF64034E7002F52920904E
:100B95004D80FB20910E120E22209103752A012013
:100BA500913C80FB20920E120E22209203752101AA
:100BB50020922B80FB209326120E2220931DAF231B
:100BC500EF70057523018013EF64014E70057523E1
:0F0BD500028008EF64024E7002F5233093FD2278
:090F0D00D2A3D2A0D2A4C2A722F3
:100EE400438901758A18758CFCD2A9D2AFD28C22A1
:03000B00020DD40F
:100DD400C0E0C0D0758CFC758A180535E535700205
:100DE4000534B4E810E534B4030B20A008753400CE
:0A0DF400753500D2A0D0D0D0E03257
:10080000120EE4120F0DC2A6120C70120D7C120D06
:10081000A8AD3AAF2F120E6AE52F2403FFAD3912AF
:100820000E6AE52F2406FFAD38120E6AAD2DAF31EA
:10083000120E8CE5312403FFAD2B120E8CE5312412
:1008400006FFAD26120E8CE5312408FFAD2E120EE8
:100850008CE531240BFFAD2C120E8CE531240EFFFC
:10086000AD27120E8C120B25E53AB52D17E539B5DB
:100870002B12E538B5260DC2A3C2A4D200C2A0E453
:10088000F534F535E53AB52E1AE539B52C15E538C8
:10089000B5271030000DC200D2A3C2A0D2A4E4F547
:1008A00034F535E53064017041E5385401700A7F54
:1008B00084120EF47F85120EF4E52A64017011F59E
:1008C0002AE53A64177004F53A8002053A120D7C65
:1008D000E5216401600302096FF521E53A700675B0
:1008E0003A1702096C153A02096CE5306402703C53
:1008F000E5385401700A7F87120EF47F88120EF4D7
:10090000E52A64017011F52AE539643B7004F53974
:1009100080020539120D7CE52164017052F521E554
:1009200039700575393B800215398040E530640324
:10093000703DE5385401700A7F8A120EF47F8B12E5
:100940000EF4E52A64017011F52AE538643B700461
:10095000F53880020538120D7CE52164017010F530
:1009600021E538700575383B80021538120D7CE59D
:100970002364016003020A4AE529FB7A00640170DE
:100980003EE5385401700A7FC0120EF47FC1120E8A
:10099000F4E52A6401700EF52AE52D64177004F55C
:1009A0002D8002052DE5216401600302080EF5216A
:1009B000E52D7006752D1702080E152D02080EEB99
:1009C00064024A703EE5385401700A7FC3120EF487
:1009D0007FC4120EF4E52A6401700EF52AE52B643B
:1009E0003B7004F52B8002052BE5216401600302B6
:1009F000080EF521E52B7006752B3B02080E152B12
:100A000002080EE5296403600302080EE53854016C
:100A1000700A7FC6120EF47FC7120EF4E52A640135
:100A2000700EF52AE526643B7004F5268002052643
:100A3000E5216401600302080EF521E526700675C4
:100A4000263B02080E152602080EE5236402600309
:100A500002080EE529FB7A006401703EE538540176
:100A6000700A7FC8120EF47FC9120EF4E52A6401E1
:100A7000700EF52AE52E64177004F52E8002052EFF
:100A8000E5216401600302080EF521E52E7006756C
:100A90002E1702080E152E02080EEB64024A703E55
:100AA000E5385401700A7FCB120EF47FCC120EF49D
:100AB000E52A6401700EF52AE52C643B7004F52CE0
:100AC0008002052CE5216401600302080EF521E592
:100AD0002C7006752C3B02080E152C02080EE52919
:100AE0006403600302080EE5385401700A7FCE12D9
:100AF0000EF47FCF120EF4E52A6401700EF52AE59C
:100B000027643B7004F52780020527E52164016016
:100B10000302080EF521E527700675273B02080E33
:050B2000152702080E7C
:03000000020BE40C
:0C0BE400787FE4F6D8FD75813E020C2BF2
:100BF000020800E493A3F8E493A34003F68001F213
:100C000008DFF48029E493A3F85407240CC8C33305
:100C1000C4540F4420C8834004F456800146F6DFD4
:100C2000E4800B0102040810204080900D37E47E20
:100C3000019360BCA3FF543F30E509541FFEE493C9
:100C4000A360010ECF54C025E060A840B8E493A390
:100C5000FAE493A3F8E493A3C8C582C8CAC583CABB
:100C6000F0A3C8C582C8CAC583CADFE9DEE780BE73
:010D7B000077
:00000001FF
